{
  "contractName": "StudentCertificateContract",
  "abi": [
    {
      "inputs": [
        {
          "internalType": "uint256",
          "name": "",
          "type": "uint256"
        }
      ],
      "name": "certificateList",
      "outputs": [
        {
          "internalType": "string",
          "name": "firstname",
          "type": "string"
        },
        {
          "internalType": "string",
          "name": "lastname",
          "type": "string"
        },
        {
          "internalType": "string",
          "name": "program",
          "type": "string"
        },
        {
          "internalType": "string",
          "name": "cgpa",
          "type": "string"
        },
        {
          "internalType": "string",
          "name": "dateofgraduation",
          "type": "string"
        }
      ],
      "stateMutability": "view",
      "type": "function",
      "constant": true
    },
    {
      "inputs": [
        {
          "internalType": "string",
          "name": "_firstname",
          "type": "string"
        },
        {
          "internalType": "string",
          "name": "_lastname",
          "type": "string"
        },
        {
          "internalType": "string",
          "name": "_program",
          "type": "string"
        },
        {
          "internalType": "string",
          "name": "_cgpa",
          "type": "string"
        },
        {
          "internalType": "string",
          "name": "_dateofgraduation",
          "type": "string"
        }
      ],
      "name": "addStudentDetails",
      "outputs": [],
      "stateMutability": "nonpayable",
      "type": "function"
    },
    {
      "inputs": [],
      "name": "getTotalCertificates",
      "outputs": [
        {
          "internalType": "uint256",
          "name": "",
          "type": "uint256"
        }
      ],
      "stateMutability": "view",
      "type": "function",
      "constant": true
    },
    {
      "inputs": [
        {
          "internalType": "uint256",
          "name": "index",
          "type": "uint256"
        }
      ],
      "name": "getCertificateData",
      "outputs": [
        {
          "components": [
            {
              "internalType": "string",
              "name": "firstname",
              "type": "string"
            },
            {
              "internalType": "string",
              "name": "lastname",
              "type": "string"
            },
            {
              "internalType": "string",
              "name": "program",
              "type": "string"
            },
            {
              "internalType": "string",
              "name": "cgpa",
              "type": "string"
            },
            {
              "internalType": "string",
              "name": "dateofgraduation",
              "type": "string"
            }
          ],
          "internalType": "struct StudentCertificateContract.Certificate",
          "name": "",
          "type": "tuple"
        }
      ],
      "stateMutability": "view",
      "type": "function",
      "constant": true
    }
  ],
  "bytecode": "0x608060405234801561001057600080fd5b50610f25806100206000396000f3fe608060405234801561001057600080fd5b506004361061004c5760003560e01c806331494bbb146100515780633ca03fcc146100815780637843bb79146100b557806393657c52146100d3575b600080fd5b61006b60048036038101906100669190610954565b6100ef565b6040516100789190610aac565b60405180910390f35b61009b60048036038101906100969190610954565b61044c565b6040516100ac959493929190610b18565b60405180910390f35b6100bd61073a565b6040516100ca9190610b9d565b60405180910390f35b6100ed60048036038101906100e89190610ced565b610746565b005b6100f7610838565b600080549050821061013e576040517f08c379a000000000000000000000000000000000000000000000000000000000815260040161013590610e40565b60405180910390fd5b6000828154811061015257610151610e60565b5b90600052602060002090600502016040518060a001604052908160008201805461017b90610ebe565b80601f01602080910402602001604051908101604052809291908181526020018280546101a790610ebe565b80156101f45780601f106101c9576101008083540402835291602001916101f4565b820191906000526020600020905b8154815290600101906020018083116101d757829003601f168201915b5050505050815260200160018201805461020d90610ebe565b80601f016020809104026020016040519081016040528092919081815260200182805461023990610ebe565b80156102865780601f1061025b57610100808354040283529160200191610286565b820191906000526020600020905b81548152906001019060200180831161026957829003601f168201915b5050505050815260200160028201805461029f90610ebe565b80601f01602080910402602001604051908101604052809291908181526020018280546102cb90610ebe565b80156103185780601f106102ed57610100808354040283529160200191610318565b820191906000526020600020905b8154815290600101906020018083116102fb57829003601f168201915b5050505050815260200160038201805461033190610ebe565b80601f016020809104026020016040519081016040528092919081815260200182805461035d90610ebe565b80156103aa5780601f1061037f576101008083540402835291602001916103aa565b820191906000526020600020905b81548152906001019060200180831161038d57829003601f168201915b505050505081526020016004820180546103c390610ebe565b80601f01602080910402602001604051908101604052809291908181526020018280546103ef90610ebe565b801561043c5780601f106104115761010080835404028352916020019161043c565b820191906000526020600020905b81548152906001019060200180831161041f57829003601f168201915b5050505050815250509050919050565b6000818154811061045c57600080fd5b906000526020600020906005020160009150905080600001805461047f90610ebe565b80601f01602080910402602001604051908101604052809291908181526020018280546104ab90610ebe565b80156104f85780601f106104cd576101008083540402835291602001916104f8565b820191906000526020600020905b8154815290600101906020018083116104db57829003601f168201915b50505050509080600101805461050d90610ebe565b80601f016020809104026020016040519081016040528092919081815260200182805461053990610ebe565b80156105865780601f1061055b57610100808354040283529160200191610586565b820191906000526020600020905b81548152906001019060200180831161056957829003601f168201915b50505050509080600201805461059b90610ebe565b80601f01602080910402602001604051908101604052809291908181526020018280546105c790610ebe565b80156106145780601f106105e957610100808354040283529160200191610614565b820191906000526020600020905b8154815290600101906020018083116105f757829003601f168201915b50505050509080600301805461062990610ebe565b80601f016020809104026020016040519081016040528092919081815260200182805461065590610ebe565b80156106a25780601f10610677576101008083540402835291602001916106a2565b820191906000526020600020905b81548152906001019060200180831161068557829003601f168201915b5050505050908060040180546106b790610ebe565b80601f01602080910402602001604051908101604052809291908181526020018280546106e390610ebe565b80156107305780601f1061070557610100808354040283529160200191610730565b820191906000526020600020905b81548152906001019060200180831161071357829003601f168201915b5050505050905085565b60008080549050905090565b60006040518060a00160405280878152602001868152602001858152602001848152602001838152509050600081908060018154018082558091505060019003906000526020600020906005020160009091909190915060008201518160000190805190602001906107b9929190610867565b5060208201518160010190805190602001906107d6929190610867565b5060408201518160020190805190602001906107f3929190610867565b506060820151816003019080519060200190610810929190610867565b50608082015181600401908051906020019061082d929190610867565b505050505050505050565b6040518060a0016040528060608152602001606081526020016060815260200160608152602001606081525090565b82805461087390610ebe565b90600052602060002090601f01602090048101928261089557600085556108dc565b82601f106108ae57805160ff19168380011785556108dc565b828001600101855582156108dc579182015b828111156108db5782518255916020019190600101906108c0565b5b5090506108e991906108ed565b5090565b5b808211156109065760008160009055506001016108ee565b5090565b6000604051905090565b600080fd5b600080fd5b6000819050919050565b6109318161091e565b811461093c57600080fd5b50565b60008135905061094e81610928565b92915050565b60006020828403121561096a57610969610914565b5b60006109788482850161093f565b91505092915050565b600081519050919050565b600082825260208201905092915050565b60005b838110156109bb5780820151818401526020810190506109a0565b838111156109ca576000848401525b50505050565b6000601f19601f8301169050919050565b60006109ec82610981565b6109f6818561098c565b9350610a0681856020860161099d565b610a0f816109d0565b840191505092915050565b600060a0830160008301518482036000860152610a3782826109e1565b91505060208301518482036020860152610a5182826109e1565b91505060408301518482036040860152610a6b82826109e1565b91505060608301518482036060860152610a8582826109e1565b91505060808301518482036080860152610a9f82826109e1565b9150508091505092915050565b60006020820190508181036000830152610ac68184610a1a565b905092915050565b600082825260208201905092915050565b6000610aea82610981565b610af48185610ace565b9350610b0481856020860161099d565b610b0d816109d0565b840191505092915050565b600060a0820190508181036000830152610b328188610adf565b90508181036020830152610b468187610adf565b90508181036040830152610b5a8186610adf565b90508181036060830152610b6e8185610adf565b90508181036080830152610b828184610adf565b90509695505050505050565b610b978161091e565b82525050565b6000602082019050610bb26000830184610b8e565b92915050565b600080fd5b600080fd5b7f4e487b7100000000000000000000000000000000000000000000000000000000600052604160045260246000fd5b610bfa826109d0565b810181811067ffffffffffffffff82111715610c1957610c18610bc2565b5b80604052505050565b6000610c2c61090a565b9050610c388282610bf1565b919050565b600067ffffffffffffffff821115610c5857610c57610bc2565b5b610c61826109d0565b9050602081019050919050565b82818337600083830152505050565b6000610c90610c8b84610c3d565b610c22565b905082815260208101848484011115610cac57610cab610bbd565b5b610cb7848285610c6e565b509392505050565b600082601f830112610cd457610cd3610bb8565b5b8135610ce4848260208601610c7d565b91505092915050565b600080600080600060a08688031215610d0957610d08610914565b5b600086013567ffffffffffffffff811115610d2757610d26610919565b5b610d3388828901610cbf565b955050602086013567ffffffffffffffff811115610d5457610d53610919565b5b610d6088828901610cbf565b945050604086013567ffffffffffffffff811115610d8157610d80610919565b5b610d8d88828901610cbf565b935050606086013567ffffffffffffffff811115610dae57610dad610919565b5b610dba88828901610cbf565b925050608086013567ffffffffffffffff811115610ddb57610dda610919565b5b610de788828901610cbf565b9150509295509295909350565b7f496e76616c696420636572746966696361746520696e64657800000000000000600082015250565b6000610e2a601983610ace565b9150610e3582610df4565b602082019050919050565b60006020820190508181036000830152610e5981610e1d565b9050919050565b7f4e487b7100000000000000000000000000000000000000000000000000000000600052603260045260246000fd5b7f4e487b7100000000000000000000000000000000000000000000000000000000600052602260045260246000fd5b60006002820490506001821680610ed657607f821691505b602082108103610ee957610ee8610e8f565b5b5091905056fea2646970667358221220f6643e1576e14d9642d8cb7babe254f463306cd3029a6dc36138b36636f5513864736f6c634300080d0033",
  "immutableReferences": {},
  "source": "// SPDX-License-Identifier: MIT\r\npragma solidity ^0.8.0;\r\n\r\ncontract StudentCertificateContract {\r\n    struct Certificate {\r\n        string firstname;\r\n        string lastname;\r\n        string program;\r\n        string cgpa;\r\n        string dateofgraduation;\r\n    }\r\n\r\n    Certificate[] public certificateList;\r\n\r\n    function addStudentDetails(\r\n        string memory _firstname,\r\n        string memory _lastname,\r\n        string memory _program,\r\n        string memory _cgpa,\r\n        string memory _dateofgraduation\r\n    ) public {\r\n        Certificate memory certificate = Certificate({\r\n            firstname: _firstname,\r\n            lastname: _lastname,\r\n            program: _program,\r\n            cgpa: _cgpa,\r\n            dateofgraduation: _dateofgraduation\r\n        });\r\n\r\n        certificateList.push(certificate);\r\n    }\r\n    function getTotalCertificates() public view returns (uint256) {\r\n        return certificateList.length;\r\n    }\r\n    \r\n    function getCertificateData(uint256 index) public view returns (Certificate memory) {\r\n        require(index < certificateList.length, \"Invalid certificate index\");\r\n\r\n        return certificateList[index];\r\n    }\r\n    \r\n}\r\n",
  "sourcePath": "D:\\fyp\\degree-fyp-1\\Client\\contracts\\StudentCertificate.sol",
  "compiler": {
    "name": "solc",
    "version": "0.8.13+commit.abaa5c0e.Emscripten.clang"
  },
  "schemaVersion": "3.4.14",
  "updatedAt": "2023-06-16T19:51:09.776Z",
  "networkType": "ethereum",
  "devdoc": {
    "kind": "dev",
    "methods": {},
    "version": 1
  },
  "userdoc": {
    "kind": "user",
    "methods": {},
    "version": 1
  }
}