{
  "contractName": "StudentCertificateContract",
  "abi": [
    {
      "inputs": [
        {
          "internalType": "uint256",
          "name": "",
          "type": "uint256"
        }
      ],
      "name": "certificateList",
      "outputs": [
        {
          "internalType": "address",
          "name": "",
          "type": "address"
        }
      ],
      "stateMutability": "view",
      "type": "function",
      "constant": true
    },
    {
      "inputs": [
        {
          "internalType": "address",
          "name": "",
          "type": "address"
        }
      ],
      "name": "certificates",
      "outputs": [
        {
          "internalType": "string",
          "name": "firstname",
          "type": "string"
        },
        {
          "internalType": "string",
          "name": "lastname",
          "type": "string"
        },
        {
          "internalType": "string",
          "name": "program",
          "type": "string"
        },
        {
          "internalType": "string",
          "name": "cgpa",
          "type": "string"
        },
        {
          "internalType": "string",
          "name": "dateofgraduation",
          "type": "string"
        }
      ],
      "stateMutability": "view",
      "type": "function",
      "constant": true
    },
    {
      "inputs": [
        {
          "internalType": "string",
          "name": "_firstname",
          "type": "string"
        },
        {
          "internalType": "string",
          "name": "_lastname",
          "type": "string"
        },
        {
          "internalType": "string",
          "name": "_program",
          "type": "string"
        },
        {
          "internalType": "string",
          "name": "_cgpa",
          "type": "string"
        },
        {
          "internalType": "string",
          "name": "_dateofgraduation",
          "type": "string"
        }
      ],
      "name": "addStudentDetails",
      "outputs": [],
      "stateMutability": "nonpayable",
      "type": "function"
    },
    {
      "inputs": [],
      "name": "getTotalCertificates",
      "outputs": [
        {
          "internalType": "uint256",
          "name": "",
          "type": "uint256"
        }
      ],
      "stateMutability": "view",
      "type": "function",
      "constant": true
    },
    {
      "inputs": [
        {
          "internalType": "uint256",
          "name": "index",
          "type": "uint256"
        }
      ],
      "name": "getCertificateData",
      "outputs": [
        {
          "components": [
            {
              "internalType": "string",
              "name": "firstname",
              "type": "string"
            },
            {
              "internalType": "string",
              "name": "lastname",
              "type": "string"
            },
            {
              "internalType": "string",
              "name": "program",
              "type": "string"
            },
            {
              "internalType": "string",
              "name": "cgpa",
              "type": "string"
            },
            {
              "internalType": "string",
              "name": "dateofgraduation",
              "type": "string"
            }
          ],
          "internalType": "struct StudentCertificateContract.Certificate",
          "name": "",
          "type": "tuple"
        }
      ],
      "stateMutability": "view",
      "type": "function",
      "constant": true
    },
    {
      "inputs": [
        {
          "internalType": "address",
          "name": "_address",
          "type": "address"
        }
      ],
      "name": "getFirstName",
      "outputs": [
        {
          "internalType": "string",
          "name": "",
          "type": "string"
        }
      ],
      "stateMutability": "view",
      "type": "function",
      "constant": true
    },
    {
      "inputs": [
        {
          "internalType": "address",
          "name": "_address",
          "type": "address"
        }
      ],
      "name": "getLastName",
      "outputs": [
        {
          "internalType": "string",
          "name": "",
          "type": "string"
        }
      ],
      "stateMutability": "view",
      "type": "function",
      "constant": true
    },
    {
      "inputs": [
        {
          "internalType": "address",
          "name": "_address",
          "type": "address"
        }
      ],
      "name": "getProgram",
      "outputs": [
        {
          "internalType": "string",
          "name": "",
          "type": "string"
        }
      ],
      "stateMutability": "view",
      "type": "function",
      "constant": true
    },
    {
      "inputs": [
        {
          "internalType": "address",
          "name": "_address",
          "type": "address"
        }
      ],
      "name": "getCGPA",
      "outputs": [
        {
          "internalType": "string",
          "name": "",
          "type": "string"
        }
      ],
      "stateMutability": "view",
      "type": "function",
      "constant": true
    },
    {
      "inputs": [
        {
          "internalType": "address",
          "name": "_address",
          "type": "address"
        }
      ],
      "name": "getDateOfGraduation",
      "outputs": [
        {
          "internalType": "string",
          "name": "",
          "type": "string"
        }
      ],
      "stateMutability": "view",
      "type": "function",
      "constant": true
    }
  ],
  "bytecode": "0x608060405234801561001057600080fd5b50611654806100206000396000f3fe608060405234801561001057600080fd5b506004361061009d5760003560e01c806340bd60dd1161006657806340bd60dd14610196578063686bdaff146101c65780637843bb79146101f657806393657c5214610214578063a3267d74146102305761009d565b806216e526146100a2578063058616e7146100d657806315d122431461010657806331494bbb146101365780633ca03fcc14610166575b600080fd5b6100bc60048036038101906100b79190610fd4565b610260565b6040516100cd95949392919061109a565b60405180910390f35b6100f060048036038101906100eb9190610fd4565b61053e565b6040516100fd9190611110565b60405180910390f35b610120600480360381019061011b9190610fd4565b610611565b60405161012d9190611110565b60405180910390f35b610150600480360381019061014b9190611168565b6106e4565b60405161015d9190611271565b60405180910390f35b610180600480360381019061017b9190611168565b610aa1565b60405161018d91906112a2565b60405180910390f35b6101b060048036038101906101ab9190610fd4565b610ae0565b6040516101bd9190611110565b60405180910390f35b6101e060048036038101906101db9190610fd4565b610bb3565b6040516101ed9190611110565b60405180910390f35b6101fe610c86565b60405161020b91906112cc565b60405180910390f35b61022e6004803603810190610229919061141c565b610c93565b005b61024a60048036038101906102459190610fd4565b610dbd565b6040516102579190611110565b60405180910390f35b600060205280600052604060002060009150905080600001805461028390611552565b80601f01602080910402602001604051908101604052809291908181526020018280546102af90611552565b80156102fc5780601f106102d1576101008083540402835291602001916102fc565b820191906000526020600020905b8154815290600101906020018083116102df57829003601f168201915b50505050509080600101805461031190611552565b80601f016020809104026020016040519081016040528092919081815260200182805461033d90611552565b801561038a5780601f1061035f5761010080835404028352916020019161038a565b820191906000526020600020905b81548152906001019060200180831161036d57829003601f168201915b50505050509080600201805461039f90611552565b80601f01602080910402602001604051908101604052809291908181526020018280546103cb90611552565b80156104185780601f106103ed57610100808354040283529160200191610418565b820191906000526020600020905b8154815290600101906020018083116103fb57829003601f168201915b50505050509080600301805461042d90611552565b80601f016020809104026020016040519081016040528092919081815260200182805461045990611552565b80156104a65780601f1061047b576101008083540402835291602001916104a6565b820191906000526020600020905b81548152906001019060200180831161048957829003601f168201915b5050505050908060040180546104bb90611552565b80601f01602080910402602001604051908101604052809291908181526020018280546104e790611552565b80156105345780601f1061050957610100808354040283529160200191610534565b820191906000526020600020905b81548152906001019060200180831161051757829003601f168201915b5050505050905085565b60606000808373ffffffffffffffffffffffffffffffffffffffff1673ffffffffffffffffffffffffffffffffffffffff168152602001908152602001600020600201805461058c90611552565b80601f01602080910402602001604051908101604052809291908181526020018280546105b890611552565b80156106055780601f106105da57610100808354040283529160200191610605565b820191906000526020600020905b8154815290600101906020018083116105e857829003601f168201915b50505050509050919050565b60606000808373ffffffffffffffffffffffffffffffffffffffff1673ffffffffffffffffffffffffffffffffffffffff168152602001908152602001600020600101805461065f90611552565b80601f016020809104026020016040519081016040528092919081815260200182805461068b90611552565b80156106d85780601f106106ad576101008083540402835291602001916106d8565b820191906000526020600020905b8154815290600101906020018083116106bb57829003601f168201915b50505050509050919050565b6106ec610e90565b6001805490508210610733576040517f08c379a000000000000000000000000000000000000000000000000000000000815260040161072a906115cf565b60405180910390fd5b600060018381548110610749576107486115ef565b5b9060005260206000200160009054906101000a900473ffffffffffffffffffffffffffffffffffffffff1690506000808273ffffffffffffffffffffffffffffffffffffffff1673ffffffffffffffffffffffffffffffffffffffff1681526020019081526020016000206040518060a00160405290816000820180546107cf90611552565b80601f01602080910402602001604051908101604052809291908181526020018280546107fb90611552565b80156108485780601f1061081d57610100808354040283529160200191610848565b820191906000526020600020905b81548152906001019060200180831161082b57829003601f168201915b5050505050815260200160018201805461086190611552565b80601f016020809104026020016040519081016040528092919081815260200182805461088d90611552565b80156108da5780601f106108af576101008083540402835291602001916108da565b820191906000526020600020905b8154815290600101906020018083116108bd57829003601f168201915b505050505081526020016002820180546108f390611552565b80601f016020809104026020016040519081016040528092919081815260200182805461091f90611552565b801561096c5780601f106109415761010080835404028352916020019161096c565b820191906000526020600020905b81548152906001019060200180831161094f57829003601f168201915b5050505050815260200160038201805461098590611552565b80601f01602080910402602001604051908101604052809291908181526020018280546109b190611552565b80156109fe5780601f106109d3576101008083540402835291602001916109fe565b820191906000526020600020905b8154815290600101906020018083116109e157829003601f168201915b50505050508152602001600482018054610a1790611552565b80601f0160208091040260200160405190810160405280929190818152602001828054610a4390611552565b8015610a905780601f10610a6557610100808354040283529160200191610a90565b820191906000526020600020905b815481529060010190602001808311610a7357829003601f168201915b505050505081525050915050919050565b60018181548110610ab157600080fd5b906000526020600020016000915054906101000a900473ffffffffffffffffffffffffffffffffffffffff1681565b60606000808373ffffffffffffffffffffffffffffffffffffffff1673ffffffffffffffffffffffffffffffffffffffff1681526020019081526020016000206003018054610b2e90611552565b80601f0160208091040260200160405190810160405280929190818152602001828054610b5a90611552565b8015610ba75780601f10610b7c57610100808354040283529160200191610ba7565b820191906000526020600020905b815481529060010190602001808311610b8a57829003601f168201915b50505050509050919050565b60606000808373ffffffffffffffffffffffffffffffffffffffff1673ffffffffffffffffffffffffffffffffffffffff1681526020019081526020016000206000018054610c0190611552565b80601f0160208091040260200160405190810160405280929190818152602001828054610c2d90611552565b8015610c7a5780601f10610c4f57610100808354040283529160200191610c7a565b820191906000526020600020905b815481529060010190602001808311610c5d57829003601f168201915b50505050509050919050565b6000600180549050905090565b60008060003373ffffffffffffffffffffffffffffffffffffffff1673ffffffffffffffffffffffffffffffffffffffff168152602001908152602001600020905085816000019080519060200190610ced929190610ebf565b5084816001019080519060200190610d06929190610ebf565b5083816002019080519060200190610d1f929190610ebf565b5082816003019080519060200190610d38929190610ebf565b5081816004019080519060200190610d51929190610ebf565b506001339080600181540180825580915050600190039060005260206000200160009091909190916101000a81548173ffffffffffffffffffffffffffffffffffffffff021916908373ffffffffffffffffffffffffffffffffffffffff160217905550505050505050565b60606000808373ffffffffffffffffffffffffffffffffffffffff1673ffffffffffffffffffffffffffffffffffffffff1681526020019081526020016000206004018054610e0b90611552565b80601f0160208091040260200160405190810160405280929190818152602001828054610e3790611552565b8015610e845780601f10610e5957610100808354040283529160200191610e84565b820191906000526020600020905b815481529060010190602001808311610e6757829003601f168201915b50505050509050919050565b6040518060a0016040528060608152602001606081526020016060815260200160608152602001606081525090565b828054610ecb90611552565b90600052602060002090601f016020900481019282610eed5760008555610f34565b82601f10610f0657805160ff1916838001178555610f34565b82800160010185558215610f34579182015b82811115610f33578251825591602001919060010190610f18565b5b509050610f419190610f45565b5090565b5b80821115610f5e576000816000905550600101610f46565b5090565b6000604051905090565b600080fd5b600080fd5b600073ffffffffffffffffffffffffffffffffffffffff82169050919050565b6000610fa182610f76565b9050919050565b610fb181610f96565b8114610fbc57600080fd5b50565b600081359050610fce81610fa8565b92915050565b600060208284031215610fea57610fe9610f6c565b5b6000610ff884828501610fbf565b91505092915050565b600081519050919050565b600082825260208201905092915050565b60005b8381101561103b578082015181840152602081019050611020565b8381111561104a576000848401525b50505050565b6000601f19601f8301169050919050565b600061106c82611001565b611076818561100c565b935061108681856020860161101d565b61108f81611050565b840191505092915050565b600060a08201905081810360008301526110b48188611061565b905081810360208301526110c88187611061565b905081810360408301526110dc8186611061565b905081810360608301526110f08185611061565b905081810360808301526111048184611061565b90509695505050505050565b6000602082019050818103600083015261112a8184611061565b905092915050565b6000819050919050565b61114581611132565b811461115057600080fd5b50565b6000813590506111628161113c565b92915050565b60006020828403121561117e5761117d610f6c565b5b600061118c84828501611153565b91505092915050565b600082825260208201905092915050565b60006111b182611001565b6111bb8185611195565b93506111cb81856020860161101d565b6111d481611050565b840191505092915050565b600060a08301600083015184820360008601526111fc82826111a6565b9150506020830151848203602086015261121682826111a6565b9150506040830151848203604086015261123082826111a6565b9150506060830151848203606086015261124a82826111a6565b9150506080830151848203608086015261126482826111a6565b9150508091505092915050565b6000602082019050818103600083015261128b81846111df565b905092915050565b61129c81610f96565b82525050565b60006020820190506112b76000830184611293565b92915050565b6112c681611132565b82525050565b60006020820190506112e160008301846112bd565b92915050565b600080fd5b600080fd5b7f4e487b7100000000000000000000000000000000000000000000000000000000600052604160045260246000fd5b61132982611050565b810181811067ffffffffffffffff82111715611348576113476112f1565b5b80604052505050565b600061135b610f62565b90506113678282611320565b919050565b600067ffffffffffffffff821115611387576113866112f1565b5b61139082611050565b9050602081019050919050565b82818337600083830152505050565b60006113bf6113ba8461136c565b611351565b9050828152602081018484840111156113db576113da6112ec565b5b6113e684828561139d565b509392505050565b600082601f830112611403576114026112e7565b5b81356114138482602086016113ac565b91505092915050565b600080600080600060a0868803121561143857611437610f6c565b5b600086013567ffffffffffffffff81111561145657611455610f71565b5b611462888289016113ee565b955050602086013567ffffffffffffffff81111561148357611482610f71565b5b61148f888289016113ee565b945050604086013567ffffffffffffffff8111156114b0576114af610f71565b5b6114bc888289016113ee565b935050606086013567ffffffffffffffff8111156114dd576114dc610f71565b5b6114e9888289016113ee565b925050608086013567ffffffffffffffff81111561150a57611509610f71565b5b611516888289016113ee565b9150509295509295909350565b7f4e487b7100000000000000000000000000000000000000000000000000000000600052602260045260246000fd5b6000600282049050600182168061156a57607f821691505b60208210810361157d5761157c611523565b5b50919050565b7f496e76616c696420636572746966696361746520696e64657800000000000000600082015250565b60006115b960198361100c565b91506115c482611583565b602082019050919050565b600060208201905081810360008301526115e8816115ac565b9050919050565b7f4e487b7100000000000000000000000000000000000000000000000000000000600052603260045260246000fdfea2646970667358221220a87bc3baaf1aa36239ccacf3fe7359c07907e370361e0f6fc3b4a31ecbbe173464736f6c634300080d0033",
  "immutableReferences": {},
  "source": "// SPDX-License-Identifier: MIT\r\npragma solidity ^0.8.0;\r\n\r\ncontract StudentCertificateContract {\r\n    struct Certificate {\r\n        string firstname;\r\n        string lastname;\r\n        string program;\r\n        string cgpa;\r\n        string dateofgraduation;\r\n    }\r\n\r\n    mapping(address => Certificate) public certificates;\r\n    address[] public certificateList;\r\n\r\n    function addStudentDetails(\r\n        string memory _firstname,\r\n        string memory _lastname,\r\n        string memory _program,\r\n        string memory _cgpa,\r\n        string memory _dateofgraduation\r\n    ) public {\r\n        Certificate storage certificate = certificates[msg.sender];\r\n        certificate.firstname = _firstname;\r\n        certificate.lastname = _lastname;\r\n        certificate.program = _program;\r\n        certificate.cgpa = _cgpa;\r\n        certificate.dateofgraduation = _dateofgraduation;\r\n        \r\n        certificateList.push(msg.sender);\r\n    }\r\n    \r\n    function getTotalCertificates() public view returns (uint256) {\r\n        return certificateList.length;\r\n    }\r\n    \r\n    function getCertificateData(uint256 index) public view returns (Certificate memory) {\r\n        require(index < certificateList.length, \"Invalid certificate index\");\r\n        \r\n        address certificateAddress = certificateList[index];\r\n        return certificates[certificateAddress];\r\n    }\r\n\r\n    function getFirstName(address _address) public view returns (string memory) {\r\n        return certificates[_address].firstname;\r\n    }\r\n\r\n    function getLastName(address _address) public view returns (string memory) {\r\n        return certificates[_address].lastname;\r\n    }\r\n\r\n    function getProgram(address _address) public view returns (string memory) {\r\n        return certificates[_address].program;\r\n    }\r\n\r\n    function getCGPA(address _address) public view returns (string memory) {\r\n        return certificates[_address].cgpa;\r\n    }\r\n    \r\n    function getDateOfGraduation(address _address) public view returns (string memory) {\r\n        return certificates[_address].dateofgraduation;\r\n    }\r\n}\r\n",
  "sourcePath": "D:\\fyp\\degree-fyp-1\\Client\\contracts\\StudentCertificate.sol",
  "compiler": {
    "name": "solc",
    "version": "0.8.13+commit.abaa5c0e.Emscripten.clang"
  },
  "schemaVersion": "3.4.14",
  "updatedAt": "2023-06-12T15:49:11.777Z",
  "networkType": "ethereum",
  "devdoc": {
    "kind": "dev",
    "methods": {},
    "version": 1
  },
  "userdoc": {
    "kind": "user",
    "methods": {},
    "version": 1
  }
}